:020000040800F2
:100000009006002089010008910100089301000872
:100010009501000897010008990100080000000000
:100020000000000000000000000000009B0100082C
:100030009D010008000000009F010008A1010008C8
:10004000A3010008A3010008A3010008A301000800
:10005000A3010008A3010008A3010008A3010008F0
:10006000A3010008A3010008A3010008A3010008E0
:10007000A3010008A3010008A3010008A3010008D0
:10008000A3010008A3010008A3010008A3010008C0
:10009000A3010008A3010008A3010008A3010008B0
:1000A000A3010008A3010008A3010008A3010008A0
:1000B000A3010008A3010008A3010008A301000890
:1000C000A3010008A3010008A3010008A301000880
:1000D000A3010008A3010008A3010008A301000870
:1000E000A3010008A3010008A301000800F002F822
:1000F00000F03AF80AA090E8000C82448344AAF188
:100100000107DA4501D100F02FF8AFF2090EBAE885
:100110000F0013F0010F18BFFB1A43F0010318473B
:100120000806000028060000103A24BF78C878C1ED
:10013000FAD8520724BF30C830C144BF04680C60ED
:10014000704700000023002400250026103A28BF35
:1001500078C1FBD8520728BF30C148BF0B60704739
:100160001FB51FBD10B510BD00F031F81146FFF7E7
:10017000F7FF00F065FA00F04FF803B4FFF7F2FF65
:1001800003BC00F057F800000948804709480047C1
:10019000FEE7FEE7FEE7FEE7FEE7FEE7FEE7FEE737
:1001A000FEE7FEE704480549054A064B7047000094
:1001B00045050008ED000008900000209006002092
:1001C00090020020900200207047704770477546EB
:1001D00000F02CF8AE4605006946534620F00700B3
:1001E000854618B020B5FFF7DDFFBDE820404FF091
:1001F00000064FF000074FF000084FF0000B21F011
:100200000701AC46ACE8C009ACE8C009ACE8C009DD
:10021000ACE8C0098D46704710B50446AFF30080C6
:100220002046BDE81040FFF7A8BF00000048704717
:100230002C00002001491820ABBEFEE7260002007A
:10024000704700B500F0A0F800BD00002DE9F041B6
:1002500004460E46174600F089F810201049086041
:10026000022000F0E3F8C4F3074000F0DFF8C4F325
:10027000072000F0DBF8E0B200F0D8F8002504E039
:10028000705D00F0D3F8681C85B2BD42F8DB102029
:100290000349091F086000F05FF8BDE8F081000025
:1002A000140801402DE9F04104460E46174610207F
:1002B0000F490860032000F0B9F8C4F3074000F0CC
:1002C000B5F8C4F3072000F0B1F8E0B200F0AEF8E2
:1002D000002505E0FF2000F0A9F87055681C85B2E4
:1002E000BD42F7DB10200249091F0860BDE8F0811C
:1002F0001408014010B5102007490860052000F0DF
:1003000095F8FF2000F092F8044610200249091FDA
:100310000860204610BD00001408014010B50446D6
:1003200000F024F810200B490860D82000F07EF877
:10033000C4F3074000F07AF8C4F3072000F076F821
:10034000E0B200F073F810200249091F086000F0C5
:1003500003F810BD1408014010B500BFFFF7CAFF35
:1003600000F001000028F9D110BD000010B51020E8
:1003700004490860062000F059F810200149091FBF
:10038000086010BD140801402548806940F0040051
:10039000234988610846806940F001008861084669
:1003A000806940F4805088611E48006820F4700025
:1003B0001C4908600846006840F4300008600846A0
:1003C000006820F0704008600846006840F0304047
:1003D00008600846006820F0706008600846006801
:1003E00040F0806008600846006820F470200860D3
:1003F0000846006840F44030086010200949103178
:1004000008604FF44170084908800846008840F0B1
:10041000100008800846008840F0400008807047BF
:10042000001002400008014000300140014600BFBA
:100430000948008900F002000028F9D006488181AF
:1004400000BF0548008900F001000028F9D00248EB
:100450008089C0B2704700000030014010B500F044
:1004600001F810BD0CB500200190009033480068E1
:1004700040F480303149086000BF3048006800F423
:10048000003000900198401C0190009818B9019824
:10049000B0F5A06FF1D12948006800F4003010B128
:1004A0000120009001E0002000900098012843D135
:1004B0002348006840F010002149086008460068A1
:1004C00020F0070008600846006840F0020008605D
:1004D0001A4840681949486008464068486008461C
:1004E000406840F4806048600846406820F47C1012
:1004F00048600846406840F4E810486008460068D4
:1005000040F08070086000BF0C48006800F0007088
:100510000028F9D00948406820F0030007494860E6
:100520000846406840F00200486000BF0348406849
:1005300000F00C000828F9D10CBD000000100240AA
:100540000020024010B51348006840F00100114936
:10055000086008464068104908400E49486008464F
:1005600000680E4908400B4908600846006820F4FE
:10057000802008600846406820F4FE0048604FF480
:100580001F008860FFF76AFF4FF0006004490860B1
:1005900010BD0000001002400000FFF8FFFFF6FE53
:1005A00008ED00E01648806940F0040014498861B5
:1005B0000846806940F4804088611248006820F055
:1005C000F000104908600846006840F0B00008607C
:1005D0000846006820F4706008600846006840F42F
:1005E0008060086040F24130074908800C20091DF6
:1005F00008800846008840F40050088070470000DA
:1006000000100240040801400838014000BF0549BD
:10061000098801F080010029F9D00249091D0880EC
:10062000704700000038014000B5024603E012F8B0
:10063000010BFFF7EBFF10780028F8D100BD000098
:10064000FFF7B0FFFFF7FDFD18A0FFF7EDFF1DA0BE
:10065000FFF7EAFF0020FFF761FE1FA0FFF7E4FFAE
:1006600021A0FFF7E1FF0C2223490020FFF7EEFD58
:1006700022A0FFF7D9FF25A0FFF7D6FF0C222749BC
:100680000020FFF70FFE26A0FFF7CEFF002405E0B5
:100690002249085DFFF7BAFF601CC4B20C2CF7D3E7
:1006A00007A0FFF7C1FF00BFFEE7000053746172AF
:1006B00074204E4F5220466C6173682054657374E9
:1006C0000D0A0000457261736520536563746F7293
:1006D0002E2E2E0D0A000000457261736520446FB6
:1006E0006E650D0A00000000577269746520446150
:1006F00074612E2E2E0D0A000000002057726974BE
:100700006520446F6E650D0A00000000526561644B
:1007100020446174612E2E2E0D0A00000C00002072
:1007200044617461203D000048070008000000207B
:100730000C00000028010008540700080C000020ED
:10074000840600004401000848454C4C4F20464CAC
:0407500041534800C9
:04000005080000ED02
:00000001FF
